:100000000C9491010C94C2010C94C2010C94C20195
:100010000C94C2010C94C2010C94C2010C94C20154
:100020000C94C2010C94C2010C94C2010C94C20144
:100030000C94520D0C94C2010C94C2010C94C20198
:100040000C94C2010C94C2010C94C2010C94C20124
:100050000C94C2010C94C2010C94C2010C943105A1
:100060000C94C2010C94A5050C947B050C94C20160
:100070000C94C2010C94C2010C94C2010C94C201F4
:100080000C94C2010C94C2010C94C2010C94C201E4
:100090000C94C2010C94C2010C94C2010C94C201D4
:1000A0000C94C2010C94C2010C94C2010C94C201C4
:1000B0000C94C2010C94C2010C94C2010C94C201B4
:1000C0000C94C2010C94C2010C94C2010C94C201A4
:1000D0000C94C2010C94C2010C94C2010C94C20194
:1000E0000C94C201720F720F720F3B0F950FA40F89
:1000F000720F720F3B0F950FCD04D004BF04C304E1
:10010000C9040705D404D804DE04E204E604EC04C0
:10011000F004F4040705FA04FE0402050C944802F6
:100120000C9443040C94FE040C94DE040C94CD0453
:100130000C94BF040C94A40F0C942D040C94620135
:100140000C94E6040C94E2040C94FA040C94FD0163
:100150000C940B040C94F4040C941F040C94D4041D
:100160000C94FC030C94D0040C94A4030C94D804B9
:100170000C94F0040C94EC040C94C50F0C941A0E1F
:100180000C94AA020C94720F0C9407050C94950F12
:100190000C9402050C943B0F0C94C3040C94900433
:1001A0000C94C904000020002300260029002C0024
:1001B0002F003200000100000301060109010000C8
:1001C0000A0B02090C0D0E080703040100000000D1
:1001D000000000000000000000000000000000001F
:1001E00000000000000000000000121110000000DC
:1001F00000000000000000000000000000000000FF
:100200000000000000002200250028002B002E0026
:100210003100340002010000050108010B0100005B
:100220002100240027002A002D00300033000101A6
:100230000000040107010A01050505050705080876
:100240000808020202020A0A080804040404010160
:100250000101010101010303030303030303040775
:1002600007070C0C0C0C0C0C0C0C0202020206060C
:100270000606060606060B0B0B0B0B0B0B0B0102FF
:1002800010202008081020401020408002010201A8
:100290000804020101020408102040808040201060
:1002A00008040201800402018040201008040201B9
:1002B0000804020101020408102040800102040821
:1002C0001020408080916A02882309F10FB6F894CB
:1002D0000F92E091A902F091AA02C681D781CE01C6
:1002E00002960E9404078091B70281508093B70262
:1002F00080916A02815080936A020F900FBE8F89AD
:10030000988D0E944909CE010E944909DBCF809156
:100310005A03823010F00E94550D0E94C401D2CFC2
:10032000C50F11241FBECFEFD1E2DEBFCDBF00E06D
:100330000CBF23E0A8E6B2E001C01D92A639B207C7
:10034000E1F712E0A0E0B2E0E2E3FBE200E00BBF85
:1003500002C007900D92A836B107D9F711E0C1E9A4
:10036000D1E000E006C021970109802FFE010E9424
:100370005914C039D10780E00807A9F70E94D309B2
:100380000C9497150C94000080E090E0892B21F0EC
:100390000E943904811125C080E090E0892B41F052
:1003A00080E090E0892B21F00E94000081111CC0A8
:1003B00080E090E0892B41F080E090E0892B21F0F3
:1003C0000E940000811113C080E090E0892BA1F011
:1003D00080E090E0892B81F00E94000081110AC02A
:1003E00008950E940000D8CF0E940000E1CF0E9433
:1003F0000000EACF0C9400000895CF92DF92EF92B4
:10040000FF920F931F93CF93DF936C017A018B01BF
:10041000C0E0D0E0CE15DF0581F0D8016D918D01EF
:10042000D601ED91FC910190F081E02DC601199566
:10043000892B11F02196EECF7E01C701DF91CF917C
:100440001F910F91FF90EF90DF90CF900895089546
:1004500080E090E00895E0919902F0919A02808105
:10046000811103C08FEF9FEF0CC0E0919902F091D2
:100470009A020580F681E02D0680F781E02D8281C9
:100480009381909383028093820208950E94821543
:100490008AEB92E00E942D0418161906CCF70E94F0
:1004A0007E06FC0197FD0BC08D329105C1F0C0970F
:1004B0000A97A8F08AEB92E00E940B04F0CFC12CBF
:1004C000D12C76018AE2C816D10411F788E192E0B6
:1004D0000E94DB058EE192E00E94DB05D9CFC12CA2
:1004E000D12C7601C0E0E130F105E1F0ED32F1050B
:1004F000C1F0CF01C0970A97A8F4AAE0B0E0A70125
:1005000096010E941D146F01FF0FEE08FF08C60E32
:10051000D71EE81EF91E80E3C81AD108E108F108C9
:1005200001C0C1E08AEB92E00E940B040E947E06AB
:10053000FC01C0970A97B8F2E130F105A1F2CC2393
:1005400009F2F094E094D094C094C11CD11CE11C39
:10055000F11CB8CF83E00E942E0684E00E942E0694
:1005600082E00E942E06E0ECF1E08491E0E8F2E007
:10057000D491EAE3F2E0C491CC2389F081110E9486
:10058000B204EC2FF0E0EE0FFF1FEC5FFD4FA591E2
:10059000B4918FB7F894EC91ED2BEC938FBF83E07F
:1005A0000E9408057C01C0E0D0E083E00E940805BD
:1005B0008C0182E00E940805892B29F0E016F106E3
:1005C000F1F47801F2CF809168029091690200976E
:1005D000A9F30E94E310813089F781E292E00E9442
:1005E000DB0560E070E080916802909169020E94F2
:1005F000F20F82E00E940805892BD9F3DFCF84E057
:100600000E9408050817190711F0219601C02197CB
:100610008091680290916902009799F20E94E3101C
:10062000813079F682E392E00E94DB056E010D2EA7
:10063000000CEE08FF08F7FE0EC06DE28AEB92E0B8
:100640000E94430466277727CB016C197D098E0928
:100650009F094AE003C04AE0C701B6010E94ED05C8
:100660008EE192E00E94DB0560E070E0809168021C
:10067000909169020E94F20FA4CFFC01848DDF01EA
:10068000A80FB11DA35ABF4F2C91848D90E0019605
:100690008F739927848FA689B7892C93A089B189F4
:1006A0008C91837080648C93938D848D981306C095
:1006B0000288F389E02D80818F7D808308950F93D8
:1006C0001F93CF93DF938FE190E00E945A09EC01D2
:1006D000009791F09983888381E08B8F1C8ECE01E7
:1006E0000E94EC131D821C82198218821E8260E017
:1006F00070E0CE010E94F20FD0936902C0936802AD
:100700000E94560600E010E021E040E850E06DE372
:1007100072E088E492E00E94751221E040E850E027
:1007200068E472E084EA93E00E94751221E040E8F8
:1007300050E063E572E08AEA92E00E947512DF9170
:10074000CF911F910F9108950E945606D0E4809199
:100750007B00877F80937B00D0937C0080917A0020
:10076000806480937A0080917A0086FDFCCFC091EE
:100770007800F0907900809168029091690200976A
:1007800069F10E94E310813049F58C2F90E09F2998
:100790006C01092E000CEE08FF0897FF0EC06DE2F9
:1007A0008AEB92E00E94430466277727CB016C19FD
:1007B0007D098E099F094AE003C04AE0C701B601DE
:1007C0000E94ED058EE192E00E94DB0560E070E0A2
:1007D00080916802909169020E94F20F0E94FE06C9
:1007E00060E084EF91E00E9481070E942E08811151
:1007F000AECF0E94550DABCFFC01538D448D252FFC
:1008000030E0842F90E0821B930B541710F0CF96AA
:10081000089501970895FC01918D828D981761F0DC
:10082000828DDF01A80FB11D5D968C91928D9F5F27
:100830009F73928F90E008958FEF9FEF0895FC01D2
:10084000918D828D981731F0828DE80FF11D858D85
:1008500090E008958FEF9FEF0895FC01918D228D18
:10086000892F90E0805C9F4F821B91098F7399279D
:1008700008958AEB92E00E942D0421E0892B09F46F
:1008800020E0822F0895EF92FF920F931F93CF9352
:10089000DF93EC0181E0888F9B8D8C8D981305C0D0
:1008A000E889F989808185FD26C0F62E0B8D10E040
:1008B0000F5F1F4F0F731127E02E8C8DE8120CC0B5
:1008C0000FB607FCFACFE889F989808185FFF5CF5B
:1008D000CE010E943D03F1CF8B8DFE01E80FF11D8B
:1008E000E35AFF4FF0829FB7F8940B8FEA89FB8998
:1008F000808180620AC09FB7F894EE89FF89608387
:10090000E889F98980818370806480839FBF81E05A
:1009100090E0DF91CF911F910F91FF90EF9008959C
:10092000CF93DF93EC01888D8823C9F0EA89FB8996
:10093000808185FD05C0A889B9898C9186FD0FC08D
:100940000FB607FCF5CF808185FFF2CFA889B98962
:100950008C9185FFEDCFCE010E943D03E7CFDF9163
:10096000CF91089590E0FC013197E231F10508F054
:100970004EC08827E458FF4F8F4F0C945914809134
:1009800080008F7703C0809180008F7D80938000EE
:10099000089580918000877FF9CF84B58F7702C05A
:1009A00084B58F7D84BD08958091B0008F7703C09A
:1009B0008091B0008F7D8093B00008958091900069
:1009C0008F7707C0809190008F7D03C08091900049
:1009D000877F8093900008958091A0008F7707C053
:1009E0008091A0008F7D03C08091A000877F8093BD
:1009F000A0000895809120018F7707C08091200189
:100A00008F7D03C080912001877F8093200108950E
:100A1000CF93DF93282F30E0F901E254FE4F849109
:100A2000F901E258FD4FD491F901E85CFD4FC49102
:100A3000CC2391F081110E94B204EC2FF0E0EE0F74
:100A4000FF1FEC55FE4FA591B491EC91ED2381E091
:100A500090E021F480E002C080E090E0DF91CF914F
:100A600008951F920F920FB60F9211242F933F9368
:100A70008F939F93AF93BF93809193029091940231
:100A8000A0919502B09196023091900223E0230F3D
:100A90002D3720F40196A11DB11D05C026E8230FB6
:100AA0000296A11DB11D2093900280939302909312
:100AB0009402A0939502B093960280918C0290913B
:100AC0008D02A0918E02B0918F020196A11DB11DE1
:100AD00080938C0290938D02A0938E02B0938F022C
:100AE000BF91AF919F918F913F912F910F900FBE2A
:100AF0000F901F9018951F920F920FB60F9211240E
:100B00000BB60F922F933F934F935F936F937F9307
:100B10008F939F93AF93BF93EF93FF938AEB92E0F2
:100B20000E943D03FF91EF91BF91AF919F918F91F3
:100B30007F916F915F914F913F912F910F900BBEDD
:100B40000F900FBE0F901F9018951F920F920FB627
:100B50000F9211240BB60F922F938F939F93EF93C5
:100B6000FF93E091CA02F091CB028081E091D00224
:100B7000F091D10282FD12C090818091D3028F5FEB
:100B80008F732091D402821751F0E091D302F0E0EC
:100B9000E654FD4F958F8093D30201C08081FF9171
:100BA000EF919F918F912F910F900BBE0F900FBEE1
:100BB0000F901F901895009769F0FC01019000209C
:100BC000E9F73197AF01481B590BBC018AEB92E062
:100BD0000C94FD0180E090E008958F929F92AF9277
:100BE000BF920F931F93CF93DF93CDB7DEB7A1973B
:100BF0000FB6F894DEBF0FBECDBF19A2423008F485
:100C00004AE08E010F5D1F4F842E912CA12CB12C38
:100C1000A50194010E943714E62FB901CA010150C1
:100C20001109EA3014F4E05D01C0E95CD801EC93ED
:100C3000232B242B252B61F7C8010E94DB05A196ED
:100C40000FB6F894DEBF0FBECDBFDF91CF911F91DD
:100C50000F91BF90AF909F908F900895CF93DF93A7
:100C600090E0FC01E258FD4F2491FC01E85CFD4F4F
:100C700084918823C1F090E0880F991FFC01E25E07
:100C8000FD4FC591D491FC01EC5FFD4FA591B4914E
:100C90009FB7F8948881E22FE0958E2388838C910A
:100CA000E823EC939FBFDF91CF910895EAEBF2E048
:100CB000A089B18982E08C93A485B5851C92A68514
:100CC000B7858FEC8C93108EA489B58986E08C93C0
:100CD000A289B3898C9180618C93A289B3898C910C
:100CE00088608C93A289B3898C9180688C930288E8
:100CF000F389E02D80818F7D808308952FB7F8944C
:100D00008091930290919402A0919502B0919602E5
:100D10002FBF8093C2029093C302A093C402B093EA
:100D2000C5028AEB92E00E941F0497FF26C02FB7EE
:100D3000F8948091930290919402A0919502B091C1
:100D400096022FBF4091C2025091C3026091C4022B
:100D50007091C502841B950BA60BB70B4091BE0288
:100D60005091BF026091C0027091C1028417950733
:100D7000A607B707B0F28FEF9FEF0895FC01DB01E4
:100D80000FB6F8940F9240915703509158032D914C
:100D90003C9111972F3F8FEF380701F181819281AC
:100DA000609159037081761719F048175907C0F4FC
:100DB000481B590B4217530770F4241B350B2D9316
:100DC0003C938091590380838091570390915803FD
:100DD0009283818303C01D921C9202C080E001C0F7
:100DE00081E00F900FBE08950FB6F8940F92809196
:100DF0005703909158030F900FBE08958091890278
:100E00008F5F809389020895CF93DF93FC01A085C3
:100E1000B1858281938124813581EC013D832C83CE
:100E2000C481D5819B838A8311968D919C91129761
:100E3000E817F90721F41296DC93CE9311971186E7
:100E400010868C9181508C938C91DF91CF91089575
:100E50000F931F93CF93DF938C01FB0180819181CE
:100E60008F3F2FEF920721F4E801AF81B8850EC0C4
:100E7000D801139612962D913C911397E901488160
:100E800059818417950710F0D901F4CF12968D91EE
:100E90009C91139793838283EC01FD83EC83B5834C
:100EA000A4831396FC93EE93129711870087F801A1
:100EB00080818F5F8083DF91CF911F910F91089583
:100EC000CF93DF939C01FB01DC011196CD91DC9166
:100ED0001297D383C2838C819D81958384838C8177
:100EE0009D81DC0113967C936E9312977D836C83B6
:100EF00031872087F90180818F5F8083DF91CF91D7
:100F00000895FF920F931F93CF93DF93EC01F62E7A
:100F100000915703109158038091B8029091B90243
:100F200002960E940407CF3F8FEFD80789F4FF2075
:100F300079F06091B8027091B9026E5F7F4F8BE9D2
:100F400092E0DF91CF911F910F91FF900C94600779
:100F5000C00FD11FE091B802F091B902D383C283D0
:100F60006091B8027091B902C017D10768F48091FE
:100F70009702909198026E5F7F4FDF91CF911F9102
:100F80000F91FF900C9428078091990290919A02FA
:100F90006E5F7F4F0E9428078091820290918302AA
:100FA000C817D90720F4D0938302C0938202DF913F
:100FB000CF911F910F91FF900895CF93DF93EB0195
:100FC0006091B8027091B902645F7F4F0E94280758
:100FD00061E0CE01DF91CF910C9481070F931F93B5
:100FE000CF93DF93DC011596ED91FC911697C681A6
:100FF000D7818E01045F1F4FC8010E9404078091B2
:101000008902811114C00A501109C8010E94040705
:101010008E8990917E03981710F480937E03B9E037
:101020008B9FC0011124B801865A9C4F03C0B801A0
:101030008DEA92E00E946007E091B802F091B90257
:101040009E898689891720F481E08093840201C0FB
:1010500080E0DF91CF911F910F9108958F929F9221
:10106000AF92BF92CF92DF92EF92FF920F931F93B6
:10107000CF93DF930FB6F8940F928091890281503D
:101080008093890280918902882311F080E0F2C068
:101090008091B7028823D1F3C0E0D0E029E0F22E9E
:1010A000EE24E3948091AD02882351F1E091B202E5
:1010B000F091B302C681D781CE010C960E9404073D
:1010C0008E010E5F1F4FC8010E9404078E89909108
:1010D0007E03981710F480937E03F89EC0011124BC
:1010E000B801865A9C4F0E946007E091B802F091C7
:1010F000B9029E8986899817A8F2E0928402D2CF1D
:10110000CD2B11F00E942B02E0908102EE2009F419
:10111000A9C089E0982E88248394CC24CA94DC2C1E
:101120008091890281118CC0C0915703D0915803DE
:101130002196D0935803C09357032097B9F4809118
:10114000990290919A0220919702309198023093DF
:101150009A0220939902909398028093970280912B
:1011600059038F5F809359030E942B028091820262
:1011700090918302F12CC817D90708F451C0E0916F
:101180009902F0919A028081811105C0D092830268
:10119000C092820245C0E0919902F0919A020580C6
:1011A000F681E02D06811781D80112968D919C91D0
:1011B0001397C817D90728F490938302809382026B
:1011C0002FC05801B2E0AB0EB11CC5010E9404074C
:1011D000F80184899589892B21F0C8010C960E9419
:1011E0000407D80156968C9190917E03981710F4BD
:1011F00080937E03989EC0011124B501865A9C4FAE
:101200000E946007E091B802F091B902D8015696A9
:101210009C918689981708F4B2CFFF24F394AFCF3E
:10122000E091B802F091B902E6899E9EF001112486
:10123000E65AFC4F8081823048F0FF24F39406C0C8
:10124000809181028F5F80938102F12C80918402D2
:10125000811101C0F11080928402EA94E11060CF04
:101260001092810280918402882309F40FCF0E949A
:10127000550D81E00F900FBEDF91CF911F910F911F
:10128000FF90EF90DF90CF90BF90AF909F908F90A6
:101290000895CF93DF93009751F0EC010E94FE0672
:1012A000CE010E94F914DF91CF910C942E08DF91AA
:1012B000CF910895CF93DF93EC010E94FE06CE01FB
:1012C0000E946114EC010E942E08209769F4279A6D
:1012D0002F9A2FEF80E792E0215080409040E1F775
:1012E00000C000001F9AF5CFCE01DF91CF91089585
:1012F000FC010396928381832FEF3FEF3483238396
:101300009683858390878783108208950FB6F8941B
:101310000F92FC01928D0F900FBE81E0911180E041
:101320000895EF92FF920F931F93CF93DF93EC01F9
:101330000FB6F8940F921E8D7C0181E1E80EF11C2E
:1013400001E011165CF48989882341F0C7010E94ED
:10135000EE078111009384021150F3CF8FEF8E8F2F
:101360000F900FBE0FB6F8940F921D8D7E0188E08E
:10137000E80EF11C01E011165CF48885882341F029
:10138000C7010E94EE078111009384021150F3CF30
:101390008FEF8D8F0F900FBEDF91CF911F910F9127
:1013A000FF90EF900895789484B5826084BD84B5F1
:1013B000816084BD85B5826085BD85B5816085BD50
:1013C00080916E00816080936E0010928100809108
:1013D0008100826080938100809181008160809390
:1013E0008100809180008160809380008091B100B5
:1013F00084608093B1008091B00081608093B000E0
:101400008091910082608093910080919100816031
:1014100080939100809190008160809390008091F2
:10142000A10082608093A1008091A10081608093DF
:10143000A1008091A00081608093A0008091210193
:10144000826080932101809121018160809321013C
:101450008091200181608093200180917A008460D6
:1014600080937A0080917A00826080937A008091E4
:101470007A00816080937A0080917A0080688093FE
:101480007A001092C1000E945F030FE712E020E093
:1014900040EC50E06BE572E082E691E00E9475124C
:1014A000813009F090C00FB6F8940F9280918A02B3
:1014B00090918B02892B49F584E792E00E9478098C
:1014C0008BE692E00E94780984E792E0909388028C
:1014D000809387028BE692E0909386028093850248
:1014E00081E590E00E945A09EC01009751F04F9677
:1014F000998388838AE08B8F85E08C8FCE010E9450
:10150000EC13D0938B02C0938A020F900FBE809190
:101510008A0290918B02892B09F455C00DE712E0E5
:1015200023E045E550E060E672E08AE19EE00E943B
:101530007512813009F047C0F8942FEF3FEF3093D8
:101540008302209382028093B60210925803109275
:101550005703A89590EC88E10FB6F894A89580936E
:1015600060000FBE90936000A091B802B091B902E4
:10157000CD91CDBFDD91DEBFFF91EF91DF91CF9196
:10158000BF91AF919F918F917F916F915F914F919B
:101590003F912F911F910F91FF90EF90DF90CF908F
:1015A000BF90AF909F908F907F906F905F904F9083
:1015B0003F902F901F900F900CBE0F900BBE0F907E
:1015C0000FBE0F9008950E945F030E94C401FDCFDB
:1015D000CF93DF9300D01F921F92CDB7DEB79C014F
:1015E00080918A0290918B02009761F019827B832F
:1015F0006A833D832C832091B602222329F0209117
:10160000890202C080E005C0BE016F5F7F4F0E946B
:10161000F20F0F900F900F900F900F90DF91CF91DE
:101620000895EF92FF920F931F93CF93DF93E09172
:101630008702F09188028081882369F10580F68114
:10164000E02D00811181C681D7817E0182E0E80E04
:10165000F11CC7010E940407E989FA89CE01199596
:101660008E85813021F78C859D85800F911F08170D
:10167000190760F49B838A83D987C887B701809153
:101680008702909188020E942807D1CFB801CE012D
:101690000E94E80ACCCF80918502909186029093B7
:1016A000880280938702F0938602E0938502DF919F
:1016B000CF911F910F91FF90EF900895FC017383DC
:1016C0006283918780874617570778F0421B530B38
:1016D0008485958548175907C8F4BF016E5F7F4F11
:1016E00080918502909186020DC04217530718F42D
:1016F0006217730758F4BF016E5F7F4F80918702B6
:10170000909188020E94280780E0089581E0089562
:101710000F920FB6F8940F920BB60F920CB60F9271
:101720001F9211242F923F924F925F926F927F925D
:101730008F929F92AF92BF92CF92DF92EF92FF92E1
:101740000F931F932F933F934F935F936F937F93C9
:101750008F939F93AF93BF93CF93DF93EF93FF93B9
:10176000A091B802B091B9020DB60D920EB60D92CD
:1017700013BE809189028111F3C08091570390912B
:10178000580301969093580380935703009799F557
:101790002091990230919A024091970250919802BB
:1017A00050939A02409399023093980220939702A3
:1017B000209159032F5F20935903E0919902F091F2
:1017C0009A022081211107C02FEF3FEF309383024F
:1017D0002093820210C0E0919902F0919A02058054
:1017E000F681E02D0680F781E02D22813381309350
:1017F0008302209382022091820230918302821719
:10180000930708F49CC020E019E0E0919902F09160
:101810009A023081311107C08FEF9FEF90938302BE
:10182000809382028DC0E0919902F0919A02058026
:10183000F681E02D0680F781E02D428153818417E7
:10184000950728F4509383024093820279C0AF0138
:101850004E5F5F4FA285B38564817581E680F78016
:10186000EB01FD82EC82C681D7817B836A8311966E
:101870006D917C9112974617570721F41296DC93CD
:10188000CE931197138612863C9131503C933C9134
:10189000A489B5891097F9F066857785E088F18885
:1018A000EB01FD82EC82C089D1897B836A8311962A
:1018B000ED90FC901297BF01645F7F4FE616F7062C
:1018C00021F41296DC93CE931197158A148A3C91D9
:1018D00031503C933C91A68930917E033A1710F425
:1018E000A0937E031A9FD0011124BD01665A7C4F3C
:1018F0007B01DB011196CD91DC911297D583C483D6
:101900006C817D81778366836C817D81DB01139699
:101910005C934E9312975D834C83F386E286E701D6
:1019200038813F5F3883A091B802B091B9024689EF
:1019300056963C91431708F468CF21E066CF20E02B
:10194000E091B802F091B902E689D9E0ED9FF0018B
:101950001124E65AFC4F8081823040F021E006C01D
:10196000809181028F5F8093810220E080918402C8
:10197000811103C0222309F466C080918902882363
:1019800021F081E0809384025EC010928402A091D5
:10199000B802B091B902E091B802F091B9022D916C
:1019A0003C918789908D82179307A8F08091B802A7
:1019B0009091B9028091B8029091B902279A2F9A1A
:1019C0002FEF67EA71E6215060407040E1F700C0F8
:1019D00000001F9AF5CF80917E0369E001C081501D
:1019E000482F50E0649F9001659F300D1124F9014C
:1019F000E65AFC4F9081992391F3A181B28112960E
:101A00000D90BC91A02DB283A183235A3C4FA21705
:101A1000B30731F412962D913C91139732832183B1
:101A200099E0949FF001959FF00D1124E65AFC4F28
:101A30000180F281E02D268137813093B902209315
:101A4000B80280937E03A091B802B091B902CD9103
:101A5000CDBFDD91DEBFFF91EF91DF91CF91BF91BF
:101A6000AF919F918F917F916F915F914F913F9136
:101A70002F911F910F91FF90EF90DF90CF90BF902B
:101A8000AF909F908F907F906F905F904F903F901E
:101A90002F901F900F900CBE0F900BBE0F900FBE9B
:101AA0000F9008950E94880B18950F920FB6F89426
:101AB0000F920BB60F920CB60F921F9211242F9219
:101AC0003F924F925F926F927F928F929F92AF92CE
:101AD000BF92CF92DF92EF92FF920F931F932F93BB
:101AE0003F934F935F936F937F938F939F93AF93A6
:101AF000BF93CF93DF93EF93FF93A091B802B09180
:101B0000B9020DB60D920EB60D928091890288230E
:101B100021F081E0809384025EC010928402A09143
:101B2000B802B091B902E091B802F091B9022D91DA
:101B30003C918789908D82179307A8F08091B80215
:101B40009091B9028091B8029091B902279A2F9A88
:101B50002FEF87EA91E6215080409040E1F700C0E6
:101B600000001F9AF5CF80917E0369E001C081508B
:101B7000482F50E0649F9001659F300D1124F901BA
:101B8000E65AFC4F9081992391F3A181B28112967C
:101B90000D90BC91A02DB283A183235A3C4FA21774
:101BA000B30731F412962D913C9113973283218320
:101BB00099E0949FF001959FF00D1124E65AFC4F97
:101BC0000180F281E02D268137813093B902209384
:101BD000B80280937E03A091B802B091B902CD9172
:101BE000CDBFDD91DEBFFF91EF91DF91CF91BF912E
:101BF000AF919F918F917F916F915F914F913F91A5
:101C00002F911F910F91FF90EF90DF90CF90BF9099
:101C1000AF909F908F907F906F905F904F903F908C
:101C20002F901F900F900CBE0F900BBE0F900FBE09
:101C30000F900895CF93DF93CDB7DEB72A970FB6F5
:101C4000F894DEBF0FBECDBFE0918702F09188020D
:101C5000F080FF2031F00580F681E02D00811181B8
:101C600002C000E010E00E94FE060E94F4066C0133
:101C70008091910290919202C816D90620F40E9498
:101C8000110B81E001C080E0D0929202C0929102DB
:101C9000811175C0FF2089F1C016D106B0F10E94F4
:101CA0002E08E0918702F09188020580F681E02DF0
:101CB000E680F780C70102960E940407D7011E96AE
:101CC0008C911E97813089F41C966D917C911D97A3
:101CD000600F711F9801A601C7010E945E0B882347
:101CE00021F0B801C7010E94E80AD7015196ED9191
:101CF000FC915297C7011995BEC0E0918502F09101
:101D000086028081BB24B3948111B12CE0908A02B9
:101D1000F0908B020FB6F8940F92F701858D8F3FEC
:101D200009F4158ED7015E968C915E978F3F11F462
:101D30005E961C920F900FBEF701828D811115C027
:101D40006091B8027091B902645F7F4FC7014196FC
:101D50000E946007B11004C0C8018C199D0902C01F
:101D60008FEF9FEF6B2D0E948107C7010E949109A1
:101D70000E942E0881117FC00E94550D7CC00E94D8
:101D80002E0879C0811109C0809159038E838091FA
:101D900057039091580398878F830F900FBE0E942E
:101DA000FE060FB6F8940F92D8015D968C915D9760
:101DB0008F3F11F45D961C92F801868D8F3F09F4D8
:101DC000168E0F900FBEBE01675F7F4FCE01069645
:101DD0000E94BE068111CDC0C8010E9486098823D9
:101DE00009F4C1C069857A85C6010E94DD07C80172
:101DF0000E9491090E942E08882309F4B1C081E055
:101E00000FB6F8940F92F801F28CFF2009F4A0C0ED
:101E1000448D41113CC0FA94F801F28E8085811105
:101E200050C00F900FBED980D7FC25C00C811D81FA
:101E3000D8011A968D919C911B97892B21F0C8018E
:101E400002960E9404070E94F4067C018091910290
:101E500090919202E816F90610F40E94110BF0928C
:101E60009202E09291028D2DDD0C990BAA0BBB0B17
:101E70008A30910580F100918A0210918B021A86B6
:101E8000198680E06801B1E1CB0ED11CB9CF50E0DA
:101E900086819781840F951F97838683248135815E
:101EA0008217930720F08081918197838683D801E0
:101EB00016966D917C911797CE0101960E94871519
:101EC000AACFC80108960E94EE07882309F4A9CF7B
:101ED0000E94550DA6CFFC018827EE58FF4F8F4F6B
:101EE0000C945914CA80DB80F801648575856C0DEB
:101EF0007D1D9601A701C8010E945E0B882309F48D
:101F0000BACFD8015196ED91FC915297C80119951D
:101F1000F8018685813009F0AECF648575856C0D3A
:101F20007D1DC8010E94E80AA6CF6A817B81D80185
:101F30001D967C936E931C976E0D7F1D9701A701D4
:101F4000C8010E945E0B97CFC8010E94490993CF38
:101F500029853A85232B09F015CF0F900FBE74CE3B
:101F60000E94550D4CCFC8010E9491090E942E0875
:101F700046CFC8010E9491090E942E08C8010E9404
:101F80008609882309F43BCF5FCEEAEBF2E01382A7
:101F9000128288EE93E0A0E0B0E084839583A6836C
:101FA000B7838AE092E09183808385EC90E0958707
:101FB000848784EC90E09787868780EC90E0918B13
:101FC000808B81EC90E0938B828B82EC90E0958B00
:101FD000848B86EC90E0978B868B118E128E138EFD
:101FE000148E0895AF92BF92DF92EF92FF920F93FB
:101FF0001F93CF93DF9300D01F921F92CDB7DEB710
:102000008C017B011D821C8280E0580198E0A90EA2
:10201000B11C0FB6F8940F92F801228D938D2917F9
:1020200008F06DC0D28C448D41113FC080819181F8
:10203000892B09F052C0F801E480F580E114F10425
:1020400011F480E02EC0F70182A1815082A326897D
:1020500091A12917B1F38111F4CF5701F2E0AF0E2E
:10206000B11CC5010E940407F70181A1868B482F8E
:1020700050E024E030E0241B350B35872487909115
:102080007E03981710F480937E0329E0249FC001FB
:10209000259F900D1124B501865A9C4F0E94600720
:1020A00081E0F8011582148219C050E0B701F801EF
:1020B000828193810E948715F801248D828193810A
:1020C000820F911D93838283248135818217930728
:1020D00020F0808191819383828380E0D394F80102
:1020E000D28E9189992321F0C80141960E94EE0772
:1020F00081110E94550D0F900FBE81E055C02C81BB
:102100003D81232B19F40F900FBE4DC0811109C0E2
:1021100080915903898380915703909158039B8341
:102120008A830F900FBE0E94FE060FB6F8940F929E
:10213000F801858D8F3F09F4158EF801868D8F3F4C
:1021400009F4168E0F900FBEBE016C5F7F4FCE015B
:1021500001960E94BE06811121C00FB6F8940F921D
:10216000F801928D838D0F900FBE981311C06C8172
:102170007D81C5010E94DD07C8010E9491090E946E
:102180002E08882311F081E044CF0E94550DFBCF2B
:10219000C8010E9491090E942E08F5CFC8010E9433
:1021A00091090E942E0880E00F900F900F900F90E1
:1021B0000F90DF91CF911F910F91FF90EF90DF90E3
:1021C000BF90AF9008957F928F929F92AF92BF92EF
:1021D000CF92DF92EF92FF920F931F93CF93DF93F3
:1021E00000D01F921F92CDB7DEB78C018AE090E03D
:1021F0009D838C83D12C90E0580121E1A20EB11C6B
:1022000089E0782E24E0822E912C0FB6F8940F925C
:10221000D8015A968C915A97882361F181505A9629
:102220008C935A978D919C91892BA1F48091B8023F
:102230009091B902892B39F0E091B802F091B9027E
:1022400082A18F5F82A38091B8029091B902F801B8
:1022500095838483D80118968C91882339F0C8011E
:1022600008960E94EE0781110E94550D0F900FBE37
:1022700081E028C12C813D81232B09F420C19111DB
:1022800009C0809159038983809157039091580325
:102290009B838A830F900FBE0E94FE060FB6F894B0
:1022A0000F92F801858D8F3F09F4158ED8015E9647
:1022B0008C915E978F3F11F45E961C920F900FBE2B
:1022C000BE016C5F7F4FCE0101960E94BE06811158
:1022D0008BC0C8010E948609882309F47FC0F801D9
:1022E00080819181892B09F068C00FB6F8940F9214
:1022F000E480F580E114F10409F45CC0F7018689FB
:10230000E091B802F091B9029689891708F046C0A9
:10231000D7011C962D913C911D9737FD0CC0E09183
:10232000B802F091B90296899401291B31091D96D2
:102330003C932E931C97789EC0011124865A9C4F83
:10234000F7012285338528173907F1F46701F2E098
:10235000CF0ED11CC6010E940407E091B802F09193
:10236000B9028689D70156968C9390917E0398176F
:1023700010F480937E03789EC0011124B601865A22
:102380009C4F0E94600707C0E091B802F091B9022B
:102390008689F701868BDD24D3940DC0E091B802C5
:1023A000F091B902DD24D394D70191969C9186894E
:1023B000981708F0D12C0F900FBE6C817D81C5015C
:1023C0000E94DD07C8010E9491090E942E088823FF
:1023D00011F091E01ACF0E94550DFBCFC8010E9469
:1023E00091090E942E08F5CFC8010E9491090E9410
:1023F0002E08C8010E948609882359F3DD2009F4BC
:1024000060C00FB6F8940F92F8018189882339F0E3
:102410000688F789E02D908184E0891B01C080E067
:10242000D80114960D911C9115970115110509F409
:1024300046C0F80191A1981708F4982FD801569634
:102440008C9156978917D9F192962C9192972130B9
:10245000B1F556969C9356971C962D913C911D97DD
:1024600037FD08C024E030E0291B31091D963C935C
:102470002E931C97B9E08B9FC0011124865A9C4F64
:10248000F8012285338528173907C9F47801F2E06D
:10249000EF0EF11CC7010E940407D80156968C91DB
:1024A00090917E03981710F480937E03B9E08B9F80
:1024B000C0011124B701865A9C4F0E9460070F90FB
:1024C0000FBE80E00F900F900F900F900F90DF9154
:1024D000CF911F910F91FF90EF90DF90CF90BF9021
:1024E000AF909F908F907F9008957F928F929F9250
:1024F000AF92BF92CF92DF92EF92FF920F931F9312
:10250000CF93DF93982EC92E762E872EEA01D22EF6
:10251000CA010E945A095C01892B09F44EC188E264
:1025200090E00E945A097C010097D9F0DC0158968E
:10253000BC92AE925797AE0165EA70E0C5010E9469
:1025400090152197D7015796ED91FC915897EC0F74
:10255000FD1FB701675E7F4FA72DB82DCD010896EF
:1025600007C0C5010E94490928C1A817B90749F049
:102570009D014D91EB014993BE01E9012881211193
:10258000F4CFD70190961C922D2D243008F023E033
:10259000E7012E8B29A31AA21B861A861D8A1C8A84
:1025A000F986E88684E090E0821B91099D878C87FC
:1025B000FB8AEA8A1BA21CA21DA21EA21FA291E1F5
:1025C0009083DF01119782E28C93119723E32C9380
:1025D00011979C921197CC9211971C9211971C9273
:1025E000119720E82C9311971C9211971C92119728
:1025F0001C92119722E02C93119723E02C931197B2
:1026000024E02C93119725E02C93119726E02C932E
:10261000119727E02C93119728E02C93119729E02C
:102620002C93119720E12C9311979C93119792E191
:102630009C93119793E19C93119794E19C9311972C
:1026400095E19C93119796E19C93119797E19C9348
:10265000119798E19C93119799E19C93119790E2BF
:102660009C93119791E29C9311978C93119783E21D
:102670008C9311971C9211971C92119786E28C9360
:10268000119787E28C93119788E28C93119789E2D6
:102690008C93119780E38C93119781E38C93B99776
:1026A000F983E8830115110519F0F801F182E08240
:1026B0000FB6F8940F928091B7028F5F8093B702A4
:1026C0008091B8029091B902892BD1F5F092B902AC
:1026D000E092B8028091B702813009F043C08AE5E8
:1026E00093E00E94780983E693E00E9478098CE6E3
:1026F00093E00E94780985E793E00E94780988E8D2
:1027000093E00E9478098FE793E00E9478098DEAB0
:1027100092E00E94780984EA92E00E9478098BE9AD
:1027200092E00E94780988E893E090939A0280935F
:1027300099028FE793E0909398028093970212C0DA
:102740008091B60281110EC0E091B802F091B902F9
:102750009689D70156968C91891720F0F092B9028C
:10276000E092B802809191038F5F80939103E7011B
:102770008E8990917E03981710F480937E03D9E0A0
:102780008D9FC0011124B7016E5F7F4F865A9C4F09
:102790000E9460070F900FBE8091B602882359F007
:1027A000E091B802F091B9029689F70186899817ED
:1027B00010F40E94550D81E001C08FEFDF91CF91A1
:1027C0001F910F91FF90EF90DF90CF90BF90AF904F
:1027D0009F908F907F900895CF93DF93EC010FB679
:1027E000F8940F92488159818B8D6C8D9A01869F48
:1027F000200D311D11243D832C831A8E5B834A8367
:1028000090E00197689F9001699F300D1124CA01E3
:10281000820F931F9F838E838FEF8D8F8E8FCE01BC
:1028200008960E947809CE0141960E9478090F907F
:102830000FBE81E0DF91CF9108950E942814A59FDB
:10284000900DB49F900DA49F800D911D11240895AB
:10285000A29FB001B39FC001A39F700D811D1124E1
:10286000911DB29F700D811D1124911D0895A1E24B
:102870001A2EAA1BBB1BFD010DC0AA1FBB1FEE1FFA
:10288000FF1FA217B307E407F50720F0A21BB30B45
:10289000E40BF50B661F771F881F991F1A9469F7C1
:1028A00060957095809590959B01AC01BD01CF011D
:1028B0000895EE0FFF1F881F8BBF0790F691E02D44
:1028C00019940F931F93CF93DF938230910510F4E7
:1028D00082E090E0E0919403F091950320E030E0F5
:1028E000A0E0B0E0309719F140815181028113815D
:1028F00048175907C8F08417950769F4109731F005
:1029000012960C93129713961C9327C0009394036E
:102910001093950322C02115310519F04217530772
:1029200018F49A01BD01EF01DF01F801DBCF211599
:102930003105F9F0281B390B2430310580F48A81E8
:102940009B816115710521F0FB019383828304C093
:102950009093950380939403FE01329644C0FE0148
:10296000E20FF31F81939193225031093983288319
:102970003AC02091920330919303232B41F420918C
:10298000020230910302309393032093920320912B
:102990000002309101022115310541F42DB73EB7F7
:1029A0004091040250910502241B350BE0919203E3
:1029B000F0919303E217F307A0F42E1B3F0B2817A7
:1029C000390778F0AC014E5F5F4F2417350748F0A8
:1029D0004E0F5F1F50939303409392038193919303
:1029E00002C0E0E0F0E0CF01DF91CF911F910F91A5
:1029F0000895CF93DF93009709F481C0FC013297CB
:102A000013821282A0919403B0919503109781F4E0
:102A100020813181820F931F209192033091930383
:102A20002817390751F5F0939303E093920367C099
:102A3000ED0120E030E0CE17DF0740F44A815B81F2
:102A40009E0141155105F1F0EA01F5CFD383C28310
:102A500040815181840F951FC817D90759F4888187
:102A60009981840F951F0296918380838A819B812F
:102A7000938382832115310529F4F0939503E09324
:102A800094033DC0E901FB83EA8349915991C40F46
:102A9000D51FEC17FD0761F480819181840F951F8C
:102AA0000296E90199838883828193819B838A833B
:102AB000E0E0F0E012968D919C911397009719F049
:102AC000FD01DC01F7CF8D919C9111979D012E5F47
:102AD0003F4F820F931F2091920330919303281749
:102AE000390769F4309729F41092950310929403F2
:102AF00002C013821282B0939303A0939203DF91DA
:102B0000CF91089581E090E0F8940C949715FB0123
:102B1000DC0102C001900D9241505040D8F7089559
:102B2000DC0101C06D9341505040E0F70895F894E6
:022B3000FFCFD5
:102B3200000096038000000000004304FD01FC0336
:102B420090042D040B041F045265C3A775000D0ADF
:102B520000427574746F6E20436C69636B65642008
:102B62002100506F736974696F6E3A200053657269
:102B720069616C5265616400416E616C6F67526598
:102B820061640049686D526561640049444C4500C6
:082B9200546D722053766300BC
:00000001FF
